:1000000000800020BD010000DD0C0000990C000004
:10001000990C0000990C0000990C0000990C00004C
:10002000990C0000990C0000990C0000DD0C0000F8
:10003000DD0C0000990C00002124000025240000A4
:10004000DD0C0000DD0C0000DD0C0000DD0C00000C
:10005000DD0C0000DD0C0000DD0C0000DD0C0000FC
:10006000DD0C0000DD0C0000DD0C0000DD0C0000EC
:10007000DD0C0000DD0C0000DD0C0000DD0C0000DC
:10008000DD0C0000DD0C0000DD0C0000DD0C0000CC
:10009000DD0C0000DD0C0000DD0C0000DD0C0000BC
:1000A000DD0C0000DD0C0000DD0C0000DD0C0000AC
:1000B000DD0C0000DD0C0000DD0C0000DD0C00009C
:1000C000DD0C0000DD0C0000DD0C0000DD0C00008C
:1000D000DD0C0000DD0C0000DD0C0000DD0C00007C
:1000E000DD0C0000DD0C0000DD0C0000DD0C00006C
:1000F000DD0C0000DD0C0000DD0C00000517000029
:10010000DD0C0000DD0C0000DD0C0000DD0C00004B
:10011000DD0C0000DD0C0000DD0C0000DD0C00003B
:10012000DD0C0000DD0C0000DD0C0000DD0C00002B
:10013000DD0C0000DD0C0000DD0C0000DD0C00001B
:10014000DD0C0000DD0C0000DD0C0000DD0C00000B
:10015000DD0C0000DD0C0000DD0C0000DD0C0000FB
:10016000DD0C0000ED190000DD0C0000DD0C0000CE
:10017000DD0C0000DD0C0000DD0C0000DD0C0000DB
:10018000DD0C0000DD0C0000DD0C0000DD0C0000CB
:10019000DD0C0000DD0C0000DD0C0000DD0C0000BB
:1001A000DD0C0000DD0C0000DD0C0000DD0C0000AB
:1001B000DD0C0000DD0C0000DD0C0000574B4CF2A4
:1001C000205210B5DA814DF62812DA8100BF00BF47
:1001D00000F088FD524B4FF010621A63514A9A6347
:1001E000514ADA63514A136913F4807303D153619E
:1001F0004FF4A85313614E4B9A78110703D59A78A0
:1002000042F008029A704B4B4B482A221A704B4B13
:10021000DA1C121AC11E22F00302994288BF002282
:10022000474902F093F9474B4748DA1C121AC11E9E
:1002300022F00302994288BF0022002102F0C2FA94
:10024000424943484FF4DE7202F080F9414B424A82
:10025000802103F8011B9342FBD14FF0E0233C4A7D
:10026000C3F8082D3D4B8A221A70A3F5805324222F
:100270005A70A0221A709A799207FCD59A79D406FE
:10028000FCD4374B9A7902F00C02082AFAD10522E5
:100290001A7143225A719A799006FCD5304A9379A3
:1002A0005906FCD51E4B4FF08171596405219964A4
:1002B00020211170917901F00C010C29FAD1294A01
:1002C0005A604FF0E023284A5A6100229A610722BF
:1002D0001A61264AC3F8202D62B600F039FD134B8F
:1002E0005B69DA0705D5224800F026FD214B224A3A
:1002F000DA61224B1B785B0609D51E4C1E4BE26966
:100300009A4204D11A4800F017FD0023E36100F07F
:10031000EFFC02F0A9FA00F0B7FCFEE70020054070
:1003200000800440823F04000100002B00D0034005
:1003300000D0074000E007401C87FF1FF887FF1F21
:100340005C2C00000C8CFF1FF887FF1F00000000D2
:100350000082FF1F00E400E05FE400E00050064080
:1003600000400640C01005003F1901000000202099
:1003700007B4D56500E00340A5C3945A00F00740D8
:10038000FFFFFFFFFFFFFFFFFFFFFFFFFFFFFFFF7D
:10039000FFFFFFFFFFFFFFFFFFFFFFFFFFFFFFFF6D
:1003A000FFFFFFFFFFFFFFFFFFFFFFFFFFFFFFFF5D
:1003B000FFFFFFFFFFFFFFFFFFFFFFFFFFFFFFFF4D
:1003C000FFFFFFFFFFFFFFFFFFFFFFFFFFFFFFFF3D
:1003D000FFFFFFFFFFFFFFFFFFFFFFFFFFFFFFFF2D
:1003E000FFFFFFFFFFFFFFFFFFFFFFFFFFFFFFFF1D
:1003F000FFFFFFFFFFFFFFFFFFFFFFFFFFFFFFFF0D
:10040000FFFFFFFFFFFFFFFFFFFFFFFFDEF9FFFF23
:100410000548064B1B1AD90F01EBA301491002D066
:10042000034B03B118477047F887FF1FF887FF1F7A
:100430000000000008B5054B1BB105490548AFF3A6
:100440000080BDE80840FFF7E3BF00BF00000000E8
:10045000F887FF1F5C2C000070B5184C184D204623
:10046000032100F09DFA0523642228464FF4807191
:1004700000F02CFB2046062100F092FA05236422AE
:1004800028464FF4806100F021FB2846072100F048
:1004900087FA0523642220464FF4807100F016FB92
:1004A0002846012100F07CFA20460523BDE8704073
:1004B00064224FF4806100F009BB00BF9488FF1FE5
:1004C0009C88FF1F10B50B4C0B49204600F066F8C6
:1004D00021462422094800F059FA214625220848DD
:1004E00000F054FA21460748BDE81040FE2200F013
:1004F0004DBA00BF1088FF1F1C87FF1F9488FF1F85
:100500009C88FF1FA488FF1F2DE9F84300210A20C3
:100510001B4D1C4C1C4FDFF8749000F079FE092035
:1005200000F0B4FE2E6840F2EE2801F0DFFE2378E2
:10053000CBB13B78DB0716D52B68D9F800209B1A86
:100540000E2B10D91249134800F0E6FA4FF4FA7056
:1005500000F0D2FC104800F03BFABDE8F8434FF43D
:100560008C6000F0C9BC2B6822789B1B2AB1B3F5C4
:10057000FA6FE7D801F0BAFED7E74345FAD9E1E7C9
:10058000B488FF1F208AFF1F448AFF1F488AFF1F6D
:100590002A2C0A001C87FF1FA488FF1F10B40446E2
:1005A000002244F8041B80F82C2044628462026319
:1005B00010BC42638263C26302644264826480F856
:1005C0004C20A0F88020704770B582B0D2B29DF860
:1005D00018508DF803108DF804205140EA1DD2B256
:1005E0001E464FF6FF738DF8022004464A40ADF8D0
:1005F000003006B3FDB1691E06F1FF3C56FA81F1E9
:100600001CF8013F614582EA0302F9D102F0FE02C3
:1006100020688DF8052082F0FE038DF8063003680F
:1006200069465B6807229847206803682A465B682A
:10063000314698470DE002F0FE0282F0FE0320688A
:100640008DF805208DF80630036807225B6869463F
:10065000984720680368DB68984702B070BD00BF08
:10066000F0B5002545638563C5630564456485640D
:1006700011B1012380F84A3090F82C20082A27D89D
:1006800090F84A3043F0020380F84A30002A00F024
:10069000A080446A061D13464FF0000CE64600F1A8
:1006A0002207002A43D0611C4162013AB94228BFA7
:1006B00031462478416280F82C20013BDBB2BEF148
:1006C000070F2ED8DFE80EF07B736D665C57351E82
:1006D000446A4C4F061DA31B023387FB03171F44BC
:1006E000D917C1EB2711C1EB0111A3EB4103F35C57
:1006F00093426BD990F84A3043F0020380F84A30B5
:100700001346C9E700EB0C020CF1010C5FFA8CFCFC
:100710006540BCF1090FEDB282F83E4028BF4FF0B2
:10072000090C63B190F82C20446A002ABBD12478CC
:10073000C3E780F83D404FF0070E002BF2D1BCF12B
:10074000010F5BD9844490F83C309CF83C2080F841
:1007500048209CF83D2080F8492005F0FE059D4288
:1007600041D090F84A3043F0080380F84A30012322
:1007700080F84C30F0BD80F83C404FF0060ED0E7DA
:10078000402C28D9A4F1400282636C40E5B24FF0BE
:10079000050EC6E7654080F83540EDB24FF0040E17
:1007A000BFE780F8344025464FF0030EB9E7A4F1C7
:1007B000FF04B4FA84F464094FEA440EB1E7A4F1EB
:1007C000FF0EBEFA8EFE4FEA5E1EAAE7002B7FF4F4
:1007D00063AF0023C1E790F84A20846342F004022B
:1007E00080F84A20D1E790F83D20DB4303F0FE0378
:1007F0009A42B6D1012380F84C30F0BD90F83C30DD
:10080000ABE700BF898888882DE9F8430446006873
:1008100003681B699847002829DD261D04F122057D
:1008200007E084F82C200BB9A36A636200F044FB54
:100830002063206803681B699847E8B12068036853
:100840005B699847A36A0133AB4208BF3346A36292
:10085000187094F82C301E2B03F10102E1D1636A69
:1008600001339D420CBF32461A466262DEE794F8BD
:100870002C60BEBBBDE8F88394F82C60012EF8D93B
:10088000656A2B4F04F1040C04F1220EA5EB0C0059
:10089000411C87FB003987FB01388144C317C3EB38
:1008A0002913C3EB0313A0EB43038844CA171CF8B6
:1008B0000330C2EB2812C2EB0212FF2BA1EB420164
:1008C00005F1010506F1FF3203D11CF80130FF2BC1
:1008D00016D0D6B2754528BF6546012E656284F8EC
:1008E0002C60D3D100F0E8FA236BC31A642B0546C1
:1008F000C0D901212046FFF7B3FE2563BDE8F88388
:10090000082EB4D9023087FB00370744C317C3EB66
:100910002713C3EB0313A0EB43001CF80030B342D2
:10092000A5D820460021BDE8F843FFF799BE00BFD7
:100930008988888810B590F88130012B82B00446F0
:1009400012D0022B0BD190F8802092000132D2B24B
:10095000009200F14D030622FE21FFF735FE002331
:10096000A4F8803002B010BD90F8802002EB820223
:10097000D2B200F14D030092FE210522FFF724FEC2
:100980000023A4F8803002B010BD00BF4FF0000C6F
:1009900002710122016080F805C08271704700BFBA
:1009A000FF2911D000B5094B417183B040F2351CCD
:1009B00003229970A3F800C0009201790068FFF744
:1009C00003FE03B05DF804FB704700BFAC88FF1F57
:1009D00000B5084B83B04FF49A7C032260219970D4
:1009E000A3F800C0009201790068FFF7EDFD03B0A5
:1009F0005DF804FBAC88FF1F30B505689DF80CC09E
:100A000095F88140012C37D0022C12D004B130BDB2
:100A10002D4C627002792170A370E27084F804C0DA
:100A20000522006803922346FE21BDE83040FFF70F
:100A3000CBBD95F8804004F1010C4FEA8C0CBCF161
:100A4000320FE4DCA4000134E4B2254485F84D10F3
:100A50000168214481F84E200268224482F84F3018
:100A600003680279234483F85020026892F88030AA
:100A7000013382F8803030BD95F8804004F1010EDA
:100A80000EEB8E0EBEF1330FC1DC04EB8404E4B236
:100A9000254485F84D100168214481F84E200268F4
:100AA000224482F84F3003680279234483F85020AF
:100AB0000368234483F851C0026892F88030013300
:100AC00082F8803030BD00BFAC88FF1F30B50446CF
:100AD0000846216815464FF48072A1F88020A2795B
:100AE00083B05AB1FF2B0CBF637963719B00C1B215
:100AF000020ADBB200952046FFF77EFF2068FFF771
:100B000019FF2068FFF780FE4FF48C6003B0BDE84A
:100B1000304000F0F1B900BF084B10B503EB5103B2
:100B20000446B3FBF1F000F033FA054B1B7803B138
:100B300010BD2046BDE8104001F07CBC0044950883
:100B40004587FF1F08B5084600F010FC012008BDCE
:100B500008B5084600F00AFC012008BD38B5084673
:100B60000D4601F0ADFE04460146284600F07AFC31
:100B7000204638BD10B508461446114600F072FCF8
:100B8000204610BD0846114600F09ABE08461146A0
:100B900000F07ABE00F092BD08B5084600F0C6FB32
:100BA000003818BF012008BD08B5084600F09CFBBE
:100BB000003818BF012008BD0846114600F028BBC8
:100BC000084600F063BB00BF084600F005BB00BF4D
:100BD00000F09ABA10B50648144600EB5100B0FB7D
:100BE000F1F000F0D5F92046BDE8104000F03EBA23
:100BF0000044950800F03CBD00F0F4BC00F0DEBC01
:100C000000F0B8BC00F0C2BC0368064A1B689342FF
:100C100005D110B5C8B200F0A9FB012010BDC9B2C2
:100C2000184700BF510B00000368064A1B68934237
:100C300005D110B5C8B200F099FB012010BDC9B2B2
:100C4000184700BF510B00000368064A1B68934217
:100C500005D110B5C8B200F089FB012010BDC9B2A2
:100C6000184700BF510B00000368064A1B689342F7
:100C700005D110B5C8B200F079FB012010BDC9B292
:100C8000184700BF510B000008B5FFF73DFCFFF708
:100C9000E3FB01F02BFBFAE708B50F4C636B58033D
:100CA0000DD4636B59050FD4636B1A0511D4636BB4
:100CB000DB04F3D500F012F8636B5803F1D500F0B4
:100CC00095FE636B5905EFD500F008F8636B1A05C4
:100CD000EDD500F017FDEAE70080044008B5FFF706
:100CE000DBFF00BF014B10221A8070470020054037
:100CF000704700BFEFF31383CBB9EFF31080A0B9B7
:100D0000EFF3058343B94FF48070EFF311835BB1C8
:100D1000984228BF184670470F2BF6D9054AD05C79
:100D2000EFF31183002BF3D17047184670474FF053
:100D3000FF307047F0E300E0034B002210215A61BE
:100D40005A6018605961704700D00340704700BF77
:100D5000F0B54FF0E0244FF400054FF0807CC4F86C
:100D60000851C4F808C14FF0007CC4F808C11D4AFE
:100D70001D481E494FF0806CC4F808C12823002785
:100D800048F6FF7609254FF0006CC4F808C183B01F
:100D900057609660D3605361D3615362D3625363EB
:100DA000D3635364156047608660C3604361056028
:100DB0004F608E60CB604B610D6001F063FBFFF70D
:100DC000C5FF0B4C23680093009B132BFAD901F04D
:100DD000C7F923680193019BB3F5967FF9D303B05C
:100DE000F0BD00BF008003400090034000800B4036
:100DF000B488FF1F212816D810B4104B53F83020A8
:100E000092F880422CB1012371B982F8003110BCF4
:100E1000704703EBC0035B681A6849B142F00302F4
:100E200010BC1A607047704782F8803010BC704761
:100E300022F0020210BC1A60704700BFD42A0000E2
:100E4000212820D81B4A02EBC00301295B680FD080
:100E500004291DD052F83000002280F8802299B178
:100E6000022922D003290DD14FF481721A607047F4
:100E700052F830004FF4A27280F880121A601A689B
:100E800022F020021A6070474FF480721A60704797
:100E900052F830104FF4A272012081F880021A60DB
:100EA0001A6842F020021A60704740F203121A607A
:100EB000704700BFD42A000072B60D494FF0E022FF
:100EC00093690868D2F8042D62B6520102D5322B1C
:100ED00088BF0130074AC3F58C334FF47A7103F2AF
:100EE0003F13A2FB032301FB00F000EB131070473C
:100EF000B488FF1F398EE3382DE9F843044672B6F3
:100F0000204F4FF0E02293693D68D2F8042D62B67D
:100F1000520102D5322B88BF01350CB9BDE8F883E8
:100F2000DFF86490DFF86480A9EB0303A8FB0323D8
:100F30004FF47A7202FB05F505EB13154FF0E0262E
:100F400072B6B1693A68D6F804CD62B6A9EB01036E
:100F5000A8FB03031CF0806FC5EB13134FF47A70EA
:100F600002D0322988BF013200FB0233B3F57A7F09
:100F700004D3013CD2D005F57A75E1E701F0B6F96A
:100F8000DEE700BFB488FF1F3F190100398EE33848
:100F90002A4A2B49536B70B443F40063294D5363C1
:100FA000294E2A4C327800232B700B70284923706D
:100FB0000B702849092A0B7033D01A2A03D1264B0B
:100FC00040F213325A60254B1B780A2B31D01F2B6D
:100FD00003D1214B4FF451721A602028204B214C31
:100FE00038BF2020C0F3443C83F800C0C0F3471C46
:100FF00000F01F0083F801C00422987202209A704A
:10100000D87488205A754FF0E021187440223C2093
:10101000D87084F82F204FF4004370BCC1F804311D
:101020007047114B40F21332DA600C4B1B780A2BDD
:10103000CDD10D4B4FF451721A61CEE700800440C0
:101040000489FF1FFC88FF1F3C87FF1F3889FF1F93
:101050004089FF1F0C89FF1F00D004404487FF1FF9
:1010600000B0064000E400E000B00440214B2149FC
:101070009B7800F0030203F0EC031343420700F0F7
:101080000F0248BF43F01003042A8B7003D18B7901
:1010900043F040038B71174B164A5B79C10603F08E
:1010A000EF0348BF43F0100353719379820603F0B6
:1010B000EF03104A48BF43F0100310F4007093711F
:1010C00010D093780C4943F0A003937009780B4B30
:1010D0000B4A03EBC10340F247305B6809491860D3
:1010E00011607047064B074A1968914208BF1860A3
:1010F000704700BF00B006404487FF1FD42A00009D
:101100000889FF1FD400D642294B5B6B1B054DD5C8
:1011100010B5284C237823B101F0E8F82378002B90
:10112000FAD1254A254B4FF0E0204FF4004400212E
:10113000C0F88441D1701B78092B2CD01A2B1BD0FE
:101140001F4B1B7803F07F030A2B1FD01F2B0ED0E1
:101150001C4B194A1C4C1D48196892F804C0D279DE
:1011600000232370037009B101230B7010BD184BCD
:1011700040F203121A60EBE7154B40F203125A607B
:101180000F4B1B7803F07F030A2BDFD1114B40F28A
:1011900003121A61DCE70F4B40F20312DA60084BCE
:1011A0001B7803F07F030A2BD0D1EFE7704700BF15
:1011B000008004400C89FF1F00B006403C87FF1FE1
:1011C0004487FF1FB888FF1FFC88FF1F0489FF1F8B
:1011D00000D0044000B004400A4A38B505461378F0
:1011E00003F0FF04002BFAD101212846FFF728FE67
:1011F00021462846FFF7FEFD034A044B52F83520EE
:101200001A6038BD0C89FF1FD42A00000889FF1F0F
:1012100009B140F08000194A1378834217D010B406
:10122000174C646B24050FD503F07F030A2B21D0E4
:101230001F2B14D0002900F07F0314BF602144212C
:101240000A2B10D01F2B03D0107010BC70477047B2
:101250000C4B41F440711960107010BC7047094B81
:1012600000241C60E6E7084B41F4407119611070DE
:1012700010BC7047044B00241C61DBE74487FF1F50
:101280000080044000D0044000B00440124B1A78A3
:1012900082420CD01149496B090507D5092A16D09D
:1012A0001A2A0AD009280DD01A2801D018707047C0
:1012B0000B4A40F213315160F8E7094A002109282E
:1012C0005160F1D1074A40F21331D160EEE7054A8F
:1012D0000021D160E6E700BF3C87FF1F008004408B
:1012E00000D0044000B004400D4B5B6B13F400636E
:1012F00013D0212803D90B4B0020186070470A4BEC
:1013000010B5084C53F8303023600121FFF798FDE9
:10131000236800221A70012010BD1846704700BFD4
:1013200000800440B888FF1FD42A00000C4B5B6B80
:1013300013F4006312D0172809D10A4B0A4A40F26D
:1013400002319960537B0120034353737047064A6F
:10135000537B03F0FE030020537370471846704719
:101360000080044000B0044000B006402DE9F84F72
:10137000334B5B6B1A053AD5324B1B6806460BB1F3
:1013800001221A70DFF8C090DFF8C08099F80040A1
:10139000D8F800302E4D0134A3422B7829D99C4235
:1013A0005FFA84FA14D12B4FDFF8ACB005E03B793B
:1013B0001B0623D42B78A3420AD1FFF79BFC4028BD
:1013C000F5DDFF28F6DD00F091FF2B78A342F4D085
:1013D000272C29D9214B283C1B68F6B21E55204AE0
:1013E0001C4B01211170BC2289F800A0DA70BDE805
:1013F000F88F03F0FF0AA3B95446D4E72B78D8F846
:1014000000105A1C9142DBB208D9272A10D8D1B259
:101410001BF80230DBB2FB712970CBE700210A46D2
:10142000F6E74FF0000A54460B4BF6B21E55D6E7CE
:10143000D1B20A4A273B1268D35CDBB2EBE700BFAC
:10144000008004400889FF1F3889FF1F4087FF1F65
:101450004089FF1F00B006401089FF1F3C89FF1F15
:101460000C89FF1F2DE9F84F394B5B6B1A053CD5F2
:10147000384B1B680BB101221A704718B84231D2A1
:10148000354EDFF8D880364CDFF8D89000F1010AED
:1014900013E003F0FF0B53B34FF0000B5D46324AED
:1014A0001AF8013C5355524630490123BA420B7099
:1014B0000AF1010A86F800B014D23578D8F8003065
:1014C0000135AB422378E4D9AB425FFA85FB0FD0FC
:1014D000272DE4D9264B1AF8012C1B68283D5A55B4
:1014E0005246E1E71F4BBC22DA70BDE8F88F5D463B
:1014F0006FF0430389F8033006E099F804301B06C7
:101500000BD42378AB42E3D1FFF7F4FB4028F4DDA2
:10151000FF28F6DD00F0EAFEF3E72378D8F80010A4
:101520005A1C9142DBB203D9272A0AD8D1B201E072
:1015300000210A460C4B9B5CDBB289F80730217016
:10154000DFE7D1B20A4A273B1268D35CDBB2F4E78B
:10155000008004400889FF1F3889FF1F4087FF1F54
:101560004089FF1F00B006401089FF1F0C89FF1F34
:101570003C89FF1F10B5044C237823B100F0B6FE60
:101580002378002BFAD110BD0C89FF1F084A094BA4
:1015900011781A789142C8B2D3B202D2013B181A1C
:1015A0007047054A1268013A1344181A704700BF81
:1015B0003889FF1F4089FF1F4087FF1F064A074BDE
:1015C00011781A789142D0B23CBF054A1268CBB26A
:1015D00038BF9B18181A7047FC88FF1F0489FF1F2B
:1015E0003887FF1F1B4B1C491A780B789A422ED064
:1015F00010B55FFA82FE194AD8B21268431C9A42AB
:1016000019D93F2B1BD85FFA83FC1548C05CC0B2C8
:1016100081F800C01349096861B19E453CBF72441E
:10162000D31A114A126828BFAEEB03039A4201D3C2
:1016300000230B7010BD4FF0000C6346E5E70B4C28
:101640003F382468205C5FFA83FCC0B2E0E74FF0CB
:10165000FF307047FC88FF1F0489FF1F3887FF1F7A
:10166000BC88FF1FB888FF1F3487FF1F0089FF1F3A
:101670000D4A0E4B11781B789942DAB211D00C4901
:101680000968531C994207D93F2B06D9094B3F3AA9
:101690001B68985CC0B270470023074AD05CC0B298
:1016A00070474FF0FF307047FC88FF1F0489FF1F11
:1016B0003887FF1F0089FF1FBC88FF1F0C4B5B6B27
:1016C0001B0514D50B4B0C48DA78402102F0CB02F5
:1016D000DA705974DA78094942F03402DA70084A4B
:1016E00003781268DBB20B700AB1002313707047E5
:1016F0000080044000B006400489FF1FFC88FF1FE3
:10170000B888FF1F2DE9F041504C237913F0300FBA
:1017100047D072B6A37D03F0FF01002B58D062B60C
:10172000DFF82C814B4898F800304B4A0578166852
:101730004A4F5FFA83FC4A4BEDB2D3F800E008E071
:101740001DB14FF0000C07F80C304A1E12F0FF01DB
:1017500012D0E3790CF101029642DBB2F0D9954246
:10176000ACF13F00F1D03F2A6DD994464A1E12F0E9
:10177000FF010EF80030ECD15FFA8CF388F80030EE
:10178000384B196869B1AC453CBF721B02EB0C03C6
:10179000354A126828BFACEB05039A429CBF01236F
:1017A0000B702A48C3781E06DDB216D46A060DD522
:1017B000264B1B795B0609D52C4B2D491B68002253
:1017C0000A7003B11A70214B3C22DA70BDE8F08137
:1017D0004023E279637462B6E3E703791C06E5D53A
:1017E000244B254ADFF894E01C7816689EF80030F8
:1017F000234A244FD2F800C0E4B2DBB207E00379F9
:101800000023FA5CD2B2C271027D072A11D8A3422A
:1018100003F101010ED08E42F1D927290279A3F1FB
:10182000270301D80B46ECE71CF803200B46D2B285
:10183000E9E7DCB2054B8EF800401A79110644BF87
:101840007C22DA70B2E794467DE700BF00B0064024
:10185000FC88FF1F0489FF1F3887FF1FBC88FF1FFC
:101860000089FF1FB888FF1F3087FF1F0889FF1FEF
:101870000C89FF1F3889FF1F4087FF1F4089FF1F0A
:101880003C89FF1F1089FF1F094B10B4186060B11D
:1018900001F14004074B084801F11A021A60074B96
:1018A0000460283110BC196070474024F2E700BF83
:1018B0000089FF1F3487FF1F3887FF1F3087FF1FF6
:1018C000054B186018B1054B283119607047034B60
:1018D00028211960704700BF3C89FF1F4087FF1F08
:1018E000704700BF10B472B6194A1A4C042312F89C
:1018F000011B090743F0010C05D554F8331061B101
:1019000054F83C10B9B10433142BF0D162B6124B29
:1019100000221A7010BC00F087BC0F4904EBC30210
:10192000083050600A780D4844F83300013A0A70D4
:1019300062B610BC7047084A094904EBCC03083072
:101940005860137844F83C10013B137062B6F0E71E
:101950003C2C00000080FF1F2C8AFF1F88004000E5
:10196000C8004000421E032A0ED81C4B400140F024
:10197000100010B4034472B6194CA05C03281CD8A4
:10198000DFE800F01315031870470520A05413F08A
:10199000080F088814BFC8228822083142EA004292
:1019A00059601A6062B610BC70470320EEE7083336
:1019B0000220EBE708330420E8E70A4B53F8220043
:1019C00038B1094B53F82200416043F8221062B647
:1019D000E9E743F82210044BF7E700BF0080FF1F40
:1019E0001C8AFF1FFC89FF1F0C8AFF1F2DE9F04F87
:1019F000DFF8CCA2DFF8CCB285B03DE0B24D9E0856
:101A000005EBC607013A796813F00803D4B2A1F1D7
:101A1000080040F0B88055F836204FEA124C120CFE
:101A200021F808CC00F0A78021F8063C41F8043CDE
:101A3000A64B53F82420002A00F00182A44B53F84F
:101A40002420506043F82400A24B33F8142094441F
:101A500023F814C000F0C8FB002800F0E98117F05B
:101A6000080F9D4B00F1080018BF5B46786045F8F1
:101A7000363008238AF880309AF880305907DCB273
:101A80001BD5964B1B78ABB195490A7802F0FF0342
:101A90002AB1013BDBB20B70002B00F04683914969
:101AA0000A7802F0FF032AB1013BDBB20B70002B76
:101AB00000F0EB8104238AF8803014F0080200F073
:101AC000CC819AF89020D3B2120997D1DFF8F8911F
:101AD0009B0809EBC30459F833006468C0F3830022
:101AE00009287CD00FD80138012808D87E4A1588EB
:101AF00042F22100854200F0FB8149F833B0012316
:101B00008AF89430B5E70D28F9D1D4E90007774D6C
:101B100049F833B0744E764CC9F8102083B240F2C5
:101B2000816CC9F818202A6063454FF00102C6E9AC
:101B30000007227000F2FF80B3F5D06F80F0CB82F7
:101B4000B3F5817F00F0268240F2DE8040F202325F
:101B500093427BD107F07F07042F00F20881020C2B
:101B600040F00581634911F8273043F0020301F882
:101B70002730134670E017F0080F574B18BF5B462D
:101B800045F8363075E700F04FFB5B495B4A51F88A
:101B90002430002B00F05781586841F82400115D73
:101BA00003F108007860032905D8DFE801F0120F7F
:101BB0001502042111551A8817F0080F14BFC82305
:101BC000882343EA024345F8363052E70221115593
:101BD000F1E703211155EEE705211155EBE7434DE0
:101BE0002A683AB34649424C0F88464894F800E0C8
:101BF0000678402F3B4628BF4023BEF1000F8EF0F1
:101C0000010E84F800E046F0020486F0010606703A
:101C100009EBC400426014BFC820882040EA03409A
:101C20001A44FB1A9BB249F834000B80002B00F0D9
:101C300036812A602C4B1A88B2F5A06F7FF45FAF13
:101C40009A788AF8982000225A7058E7B3F5A06F66
:101C500040F08D8000221346B6F806C0294894450E
:101C600028BF944667460278402F28BF402742F09D
:101C7000020E3E0409EBCE0846F0C806C8F8043050
:101C800049F83E6000263B442670BCEB070782F013
:101C90000106067040F01181BCF13F0F4FF00105C5
:101CA00009D946F00206027009EBC602257053609E
:101CB000882349F8363001238AF894301FE700BFA3
:101CC00000200740C80040000080FF1FD489FF1F8C
:101CD000E489FF1F248AFF1F88004000208AFF1F1D
:101CE000218AFF1F4C8AFF1FF489FF1FC889FF1F2D
:101CF000C589FF1FC0200740FC89FF1F1C8AFF1FEA
:101D0000C689FF1FC489FF1F802B00F08B81822BA7
:101D10002DD107F07F07042F29D8A74A002313806D
:101D2000A64B13F827309F0740F1FC810123137065
:101D3000A14B022290E742F2210C6345BBD01DD992
:101D400042F2212293420DD1BFB2002F82D19C4B8F
:101D50001A689C4B1A609C4BC0F307400022187015
:101D6000134679E742F2213293423FF473AF0F23D7
:101D70008AF8C03001238AF89430C0E6B3F5086FC2
:101D800000F04A81B3F5106FF1D1904BC0F30740DA
:101D90000425187059F835301A0606D40135142D6B
:101DA0000CD059F835301A06F8D509EBC5030135C2
:101DB0005868083800F038FA142DF2D1844A854B5F
:101DC0000292854A0192854E854ADFF81882039473
:101DD000009200251C4656F8047B2FB138467F68D8
:101DE00000F022FA002FF9D1009BD8F8007043F8D8
:101DF000045B46F8045C00932FB138467F6800F01E
:101E000013FA002FF9D1029B48F8045B43F8045BF6
:101E10000293019B23F8025B01932378023B032B7F
:101E200000F20981DFE813F03F0104013F010401E2
:101E30006D4A45F8360013780133137019E643F8FC
:101E40002400674BFEE5115D022926D07FF611AE16
:101E500003291DD1012313550BE6E0076ED421069B
:101E600021D4A20708D5614B93F888200221D2B271
:101E700083F8882083F88010E30603D55B4B10229B
:101E800083F8802005B0BDE8F08F00F00BFA11E672
:101E900017F0080F14BF032302231355E9E53F2F62
:101EA00098BF0022C5E6514B80220D2183F8C01057
:101EB00083F88020A207DFD5D5E746F0020602703E
:101EC000402F09EBC6003A4628BF40224360100469
:101ED000134440F088000121BA1A49F836002170F5
:101EE00055D02B60424B1A8001238AF8943006E6C5
:101EF00092885AB93F4AE51D14F8011B02F8011FE8
:101F0000AC42F9D13C4A1268862A3CD03B4C3C4852
:101F100025780278002D85F00105257042F0020435
:101F200082F00102027009EBC4024FF00000506021
:101F300014BFC822882249F83420DEE52B4B3048F4
:101F40003049314C022583F8945002702F480C60C0
:101F50002F4D48608C600D24CD60FF200A618A619E
:101F600083F8C04001219F2483F8880083F8800013
:101F700083F8982083F88C0083F8844083F89410C9
:101F800005B0BDE8F08F234A0F201070BEE73F2F49
:101F9000A7D890E607F07F07042F3FF6E8AE000CC5
:101FA0007FF4E5AE054A12F8273023F0020302F869
:101FB0002730002213464FE6CC89FF1FC020074080
:101FC000B488FF1F488AFF1F448AFF1F208AFF1F13
:101FD0000C8AFF1F1C8AFF1F248AFF1FD489FF1F42
:101FE000E489FF1FFC89FF1F2C8AFF1F0020074088
:101FF000C689FF1F3B8AFF1F3C8AFF1FC589FF1F41
:10200000C489FF1F0080FF1F880040004489FF1F14
:102010008489FF1F218AFF1F484B49491B780B7099
:102020000B4619E6464A00231380454B022213E66D
:102030004FF001032370434BB34204F101047FF4DA
:10204000CAAE414E039CDFF80481414F0023337038
:10205000042518F8013B3F4AAB541B0725D445F033
:10206000020145F0030204350023142D49F83130F4
:1020700049F83230EDD1384F25783A7842F00200F5
:1020800009EBC00C85F00106CCF80430002D4DD1D1
:10209000882382F0010226703A7049F8303001231B
:1020A0008AF894302BE52570C5E700F09DF80028EC
:1020B00032D009EBC5030830586049F8357000F09C
:1020C00093F808B345F0010309EBC30208305060F0
:1020D00049F833B0C3E7214A5368002B3FF447AEB9
:1020E000000CBFB204E013690C32002B3FF43FAE8A
:1020F00011888142F7D15188B942F4D1000A0328EE
:102100000CBF1A781289A7E533780133337045F094
:10211000010349F83300A2E7337849F83500013369
:102120003370CCE7064B022296E500BE2670C8232A
:1021300082F001063E7049F83030BCE5208AFF1F6E
:10214000CC89FF1FE489FF1F2C8AFF1F3C2C000055
:1021500088004000C0200740C489FF1FE82B000012
:1021600070B500F0C9FA00231A4A194642F8331034
:1021700002EBC3000133142B4160F7D1164C174B0F
:10218000606B174D40F480206063C2F3072483F82E
:102190009C40144CFF204FF0010CC2F30746120E76
:1021A00083F8B0604FF0E02E83F8B42083F880000D
:1021B00083F88800187483F894C0217083F884C071
:1021C000702385F849304FF400721023CEF80821AF
:1021D000237270BD0080FF1F008004400020074074
:1021E00000E400E00021074072B60D490B68B3FA25
:1021F00083F00B2810DC4FF00042C24023EA0203B8
:102200000B6062B6074A00EBC000C10002EBC000E1
:10221000002353504360704762B60020704700BFF0
:102220004887FF1FBC83FF1F0E4BC31AB3F5587FAF
:1022300010D20D4A127872B972B60C4A0C49A2FB40
:10224000032308684FF000421B0922FA03F30343FB
:102250000B6062B67047074A1278002AECD0FFF78D
:1022600041BB00BFBC83FF1F2C8AFF1F398EE338A0
:102270004887FF1F208AFF1F084B094A1B6810B5BB
:1022800094881BB11A885B88D31A1C440CB1204671
:1022900010BD00F02BF8204610BD00BF308AFF1F94
:1022A000248AFF1F38B50E4B1B7853B90D4C21689B
:1022B00041B103F0FF054B880B800420FFF752FB70
:1022C000256038BDFFF790FF014620B1BDE83840DA
:1022D0000420FFF747BB044B01221A7038BD00BF32
:1022E000348AFF1F388AFF1F4C8AFF1F2DE9F843ED
:1022F000324E337863B1324F3A784AB90122D90766
:102300003A7043D49A0726D400225B073A7001D46E
:10231000BDE8F8832B4B1A68002AF9D0EFF3058249
:10232000002AF5D1EFF3108572B6186800283AD06C
:10233000254C2178002936D142691A600123237087
:10234000002A37D0916105B962B6002583684577C8
:1023500098472570DCE7DFF8748098F80020002AA1
:10236000D2D00025DFF868902B4659F82340236827
:1023700020461B690135984708B12369984798F8AA
:102380000020EBB29A42F0D83378BDE7FFF774FF34
:1023900068B9104B1B780BB93378B3E7337803F087
:1023A000FE033370AEE7002DB2D162B6B0E700F0A5
:1023B000A1F9EEE7084B1A60C5E700BF4C87FF1F85
:1023C0004D8AFF1F508AFF1F5C8AFF1F708AFF1F04
:1023D000648AFF1FE42B0000608AFF1F70B5EFF3D3
:1023E000108272B60C4C206880B10C4E00254369F7
:1023F000236073B19D6102B962B6836845779847DF
:10240000EFF3108272B620680028F0D102B962B6EC
:1024100070BD3360EFE700BF588AFF1F548AFF1F6B
:10242000FFF7DCBF024A136801331360704700BF37
:10243000B488FF1F70B4104E104D3478D4B1621EB2
:10244000D2B2291D2B4601EB820101E08B4205D05F
:1024500053F8042B8242F9D170BC7047631CDBB285
:10246000074A3370137845F8240043F002031370D1
:1024700070BC70470123F3E7708AFF1F648AFF1F57
:102480004C87FF1F2A4B2B4A6020E121187059709E
:1024900013782948082B34D00A2B20D00C2B274B3B
:1024A0000CBF15213D2112228160C2609960DA6063
:1024B000234B21491B78214ACBB101230B621362C4
:1024C000204B1D491B781D4A012B13D9042B1BD807
:1024D00084234B6253621C4B01221A707047174BC6
:1024E000192113228160C2609960DA60E0E70B6213
:1024F0001362E5E780234B625362134B01221A708B
:1025000070470E4B0121ECE7082B06D885234B6260
:1025100053620D4B01221A707047102B94BF862313
:1025200087234B625362084B01221A70704700BF29
:10253000004007404D87FF1F00B0034000B00B4034
:10254000718AFF1F4E87FF1F728AFF1F01B441EA85
:10255000000313F003036FD1403A41D351F8043B19
:1025600040F8043B51F8043B40F8043B51F8043B6D
:1025700040F8043B51F8043B40F8043B51F8043B5D
:1025800040F8043B51F8043B40F8043B51F8043B4D
:1025900040F8043B51F8043B40F8043B51F8043B3D
:1025A00040F8043B51F8043B40F8043B51F8043B2D
:1025B00040F8043B51F8043B40F8043B51F8043B1D
:1025C00040F8043B51F8043B40F8043B51F8043B0D
:1025D00040F8043B51F8043B40F8043B403ABDD27C
:1025E000303211D351F8043B40F8043B51F8043B1E
:1025F00040F8043B51F8043B40F8043B51F8043BDD
:1026000040F8043B103AEDD20C3205D351F8043BAC
:1026100040F8043B043AF9D204320AD0D2071CBF76
:1026200011F8013B00F8013B03D30B7803704B78A2
:10263000437001BC704700BF0C2A4AD310F003035B
:1026400011D0C3F10403D21ADB071CBF11F8013B00
:1026500000F8013B07D311F8013B00F8013B11F8EA
:10266000013B00F8013B11F003033FF475AF30B4B8
:10267000043AC91AC3F1040C51F8044B022B19D0C7
:10268000032B0BD0240A51F8043B1D0644EA050431
:1026900040F8044B1C46043AF4D216E0240E51F8DC
:1026A000043B1D0244EA050440F8044B1C46043A6E
:1026B000F4D20AE0240C51F8043B1D0444EA05045A
:1026C00040F8044B1C46043AF4D20432B1EB0C013E
:1026D00030BC043AA0D3013A11F8013B00F8013BA9
:1026E000F9D20B7803704B7843708B78837001BC00
:1026F000704700BF704700BF10B584B072B6174A6C
:10270000702441200F2180231470D07191711370B7
:1027100013781B06FCD5906862B6114B114C984299
:1027200038BF00EB800001A938BF40000A2200F04A
:102730001BF801A92046002311F8012B01333AB1FF
:102740000A2B20F8022FF7D11623237004B010BDF6
:102750005B00DBB2237004B010BD00BF000002407C
:1027600080969800DC87FF1F01F1FF3C70B565463D
:10277000002401E070460134B0FBF2FE02FB1E03B0
:10278000092B03F130068ABF3733F3B2DBB2904234
:1027900005F8013FEED2631C0022CA54C8187CB170
:1027A00062461CF8015F10F801ED8CF800E0A1EB27
:1027B0000C030232013B521A23449A420570EFDBAC
:1027C000084670BD830730B548D0541E002A3FD05C
:1027D000CAB2034601E0013C3AD303F8012B9D073E
:1027E000F9D1032C2DD9CDB245EA05250F2C45EAA8
:1027F000054536D9A4F1100222F00F0C03F1200E8A
:10280000E6444FEA121C03F1100242E9045542E982
:10281000025510327245F8D10CF1010214F00C0F80
:1028200003EB021204F00F0C13D0ACF1040323F0FD
:1028300003030433134442F8045B9342FBD10CF0CE
:1028400003042CB1C9B21C4403F8011B9C42FBD108
:1028500030BD64461346002CF4D1F9E70346144614
:10286000BFE71A46A446E0E770B50D4E0D4D761B46
:10287000B61006D0002455F8043B01349847A64210
:10288000F9D1094E094D761B00F0DAF9B61006D0E1
:10289000002455F8043B01349847A642F9D170BD95
:1028A0004C2C00004C2C0000582C00004C2C00003C
:1028B000704700BF704700BFFFFFFFFFFFFFFFFF34
:1028C00090F800F06DE9024520F007016FF0000C70
:1028D00010F0070491F820F040F049804FF0000418
:1028E0006FF00700D1E9002391F840F000F10800F3
:1028F00082FA4CF2A4FA8CF283FA4CF3A2FA8CF32B
:102900004BBBD1E9022382FA4CF200F10800A4FA91
:102910008CF283FA4CF3A2FA8CF3E3B9D1E90423E5
:1029200082FA4CF200F10800A4FA8CF283FA4CF31C
:10293000A2FA8CF37BB9D1E9062301F1200182FAD6
:102940004CF200F10800A4FA8CF283FA4CF3A2FADC
:102950008CF3002BC6D0002A04BF04301A4612BAEA
:10296000B2FA82F2FDE8024500EBD2007047D1E9ED
:10297000002304F00305C4F100004FEAC50514F07C
:10298000040F91F840F00CFA05F562EA05021CBF4D
:1029900063EA050362464FF00004A9E7024B13B156
:1029A000024800F005B8704700000000BD29000093
:1029B000002301461A46184600F014B838B5074DF2
:1029C000074C2C1BA41005D0013C55F8043D98473A
:1029D000002CF9D1BDE8384000F03EB900000000FD
:1029E000000000002DE9F047DFF874A00646DAF891
:1029F000000098460F469146FFF75AFF194B1C6896
:102A000024B365681F2D24DC5EB96B1C0235DAF82F
:102A10000000636044F82570FFF74CFF0020BDE81C
:102A2000F08704EB85010123C1F88890D4F8882150
:102A3000AB401A43022EC4F88821C1F80881E4D1C2
:102A4000D4F88C211A43C4F88C21DEE7064C1C60B4
:102A5000D7E7DAF80000FFF72DFF4FF0FF30DEE791
:102A6000F487FF1F788AFF1F7C8AFF1F0000000089
:102A700000000000510B0000750B0000050C000069
:102A8000010C0000FD0B0000F90B0000F50B00002D
:102A9000190B0000D50B0000D10B0000C90B000082
:102AA000C10B0000B90B0000A90B0000990B00003E
:102AB000950B00008D0B0000850B0000290C000019
:102AC000490C0000690C0000090C00005D0B0000BF
:102AD000450B00004008FE4340A004404408FE436C
:102AE00044A004400018FE4300C004403000FE43F0
:102AF000309004403400FE43349004401C18FE43E0
:102B00001CC004401018FE4310C004400818FE43C7
:102B100008C004400C18FE430CC004400C10FE43D7
:102B20000CB004401010FE4310B004401810FE43D7
:102B300018B004401C10FE431CB004401410FE43A7
:102B400014B004400418FE4304C004400010FE43C7
:102B500000B004400008FE4300A004400408FE4307
:102B600004A004400C08FE430CA004400808FE43E7
:102B700008A004401418FE4314C004401818FE4373
:102B800018C004400410FE4304B004400810FE4383
:102B900008B004401400FE43149004404C08FE4367
:102BA0004CA004400420FE4304D004402410FE4303
:102BB00024B004402010FE4320B004402810FE43FF
:102BC00028B004402C10FE432CB004400020FE43EB
:102BD00000D004404808FE4348A004401000FE43D3
:102BE0001090044000FFFFFF000100009487FF1FCA
:102BF00012000000000200005087FF1F4300000089
:102C000000030000A887FF1F000000000103090463
:102C1000AC87FF1F0000000002030904C487FF1FE8
:102C20000000000003030904DC87FF1F0000000010
:102C30000000000000000000000000000015191551
:102C4000F8B500BFF8BC08BC9E4670479D2900003F
:082C500035040000C50400007A
:042C5800F8B500BF0C
:102C5C00742A000000000000E803000000000000DF
:102C6C00E1180000280000001A00000040000000DD
:102C7C0009000000280000000A010000FFFFFFFF10
:102C8C00010A040009024300020100C032090400D9
:102C9C0000010202010005240010010524010101BC
:102CAC0004240206052406000107058203100040D7
:102CBC0009040100020A000000070503024000009D
:102CCC0007058402400000001201100102000040C0
:102CDC00C0168304750201020301000004030904F9
:102CEC0018035400650065006E00730079006400E1
:102CFC00750069006E006F0016035500530042000A
:102D0C002000530065007200690061006C00000037
:102D1C000C03000000000000000000000000000098
:0C2D2C000000000000000000748AFF1F7F
:00000001FF
